{
  "_format": "hh-sol-artifact-1",
  "contractName": "ClassRegistration",
  "sourceName": "contracts/ClassRegistration.sol",
  "abi": [
    {
      "inputs": [],
      "stateMutability": "nonpayable",
      "type": "constructor"
    },
    {
      "inputs": [],
      "name": "admin",
      "outputs": [
        {
          "internalType": "address",
          "name": "",
          "type": "address"
        }
      ],
      "stateMutability": "view",
      "type": "function"
    },
    {
      "inputs": [
        {
          "internalType": "uint256",
          "name": "_id",
          "type": "uint256"
        }
      ],
      "name": "getStudent",
      "outputs": [
        {
          "components": [
            {
              "internalType": "uint256",
              "name": "id",
              "type": "uint256"
            },
            {
              "internalType": "string",
              "name": "name",
              "type": "string"
            }
          ],
          "internalType": "struct ClassRegistration.Student",
          "name": "",
          "type": "tuple"
        }
      ],
      "stateMutability": "view",
      "type": "function"
    },
    {
      "inputs": [],
      "name": "getStudentList",
      "outputs": [
        {
          "components": [
            {
              "internalType": "uint256",
              "name": "id",
              "type": "uint256"
            },
            {
              "internalType": "string",
              "name": "name",
              "type": "string"
            }
          ],
          "internalType": "struct ClassRegistration.Student[]",
          "name": "",
          "type": "tuple[]"
        }
      ],
      "stateMutability": "view",
      "type": "function"
    },
    {
      "inputs": [
        {
          "internalType": "string",
          "name": "_name",
          "type": "string"
        }
      ],
      "name": "registerStudent",
      "outputs": [],
      "stateMutability": "nonpayable",
      "type": "function"
    },
    {
      "inputs": [
        {
          "internalType": "uint256",
          "name": "_id",
          "type": "uint256"
        }
      ],
      "name": "removeStudent",
      "outputs": [],
      "stateMutability": "nonpayable",
      "type": "function"
    },
    {
      "inputs": [],
      "name": "studentCount",
      "outputs": [
        {
          "internalType": "uint256",
          "name": "",
          "type": "uint256"
        }
      ],
      "stateMutability": "view",
      "type": "function"
    },
    {
      "inputs": [
        {
          "internalType": "uint256",
          "name": "",
          "type": "uint256"
        }
      ],
      "name": "students",
      "outputs": [
        {
          "internalType": "uint256",
          "name": "id",
          "type": "uint256"
        },
        {
          "internalType": "string",
          "name": "name",
          "type": "string"
        }
      ],
      "stateMutability": "view",
      "type": "function"
    }
  ],
  "bytecode": "0x60806040526000600155348015601457600080fd5b50336000806101000a81548173ffffffffffffffffffffffffffffffffffffffff021916908373ffffffffffffffffffffffffffffffffffffffff160217905550611155806100646000396000f3fe608060405234801561001057600080fd5b506004361061007d5760003560e01c80636af838451161005b5780636af838451461010157806371e174451461011d578063e581f9ee14610139578063f851a440146101575761007d565b806306ead22e146100825780631dcc5976146100b3578063642f9163146100d1575b600080fd5b61009c6004803603810190610097919061079f565b610175565b6040516100aa92919061086b565b60405180910390f35b6100bb610221565b6040516100c891906109f3565b60405180910390f35b6100eb60048036038101906100e6919061079f565b61038c565b6040516100f89190610a52565b60405180910390f35b61011b6004803603810190610116919061079f565b6104ac565b005b61013760048036038101906101329190610ba9565b6105bc565b005b6101416106b4565b60405161014e9190610bf2565b60405180910390f35b61015f6106ba565b60405161016c9190610c4e565b60405180910390f35b600260205280600052604060002060009150905080600001549080600101805461019e90610c98565b80601f01602080910402602001604051908101604052809291908181526020018280546101ca90610c98565b80156102175780601f106101ec57610100808354040283529160200191610217565b820191906000526020600020905b8154815290600101906020018083116101fa57829003601f168201915b5050505050905082565b6060600060015467ffffffffffffffff81111561024157610240610a7e565b5b60405190808252806020026020018201604052801561027a57816020015b6102676106de565b81526020019060019003908161025f5790505b5090506000600190505b60015481116103845760026000828152602001908152602001600020604051806040016040529081600082015481526020016001820180546102c590610c98565b80601f01602080910402602001604051908101604052809291908181526020018280546102f190610c98565b801561033e5780601f106103135761010080835404028352916020019161033e565b820191906000526020600020905b81548152906001019060200180831161032157829003601f168201915b505050505081525050826001836103559190610cf8565b8151811061036657610365610d2c565b5b6020026020010181905250808061037c90610d5b565b915050610284565b508091505090565b6103946106de565b6000821180156103a657506001548211155b6103e5576040517f08c379a00000000000000000000000000000000000000000000000000000000081526004016103dc90610def565b60405180910390fd5b6000600260008481526020019081526020016000206040518060400160405290816000820154815260200160018201805461041f90610c98565b80601f016020809104026020016040519081016040528092919081815260200182805461044b90610c98565b80156104985780601f1061046d57610100808354040283529160200191610498565b820191906000526020600020905b81548152906001019060200180831161047b57829003601f168201915b505050505081525050905080915050919050565b60008054906101000a900473ffffffffffffffffffffffffffffffffffffffff1673ffffffffffffffffffffffffffffffffffffffff163373ffffffffffffffffffffffffffffffffffffffff161461053a576040517f08c379a000000000000000000000000000000000000000000000000000000000815260040161053190610e81565b60405180910390fd5b60008111801561054c57506001548111155b61058b576040517f08c379a000000000000000000000000000000000000000000000000000000000815260040161058290610def565b60405180910390fd5b600260008281526020019081526020016000206000808201600090556001820160006105b791906106f8565b505050565b60008054906101000a900473ffffffffffffffffffffffffffffffffffffffff1673ffffffffffffffffffffffffffffffffffffffff163373ffffffffffffffffffffffffffffffffffffffff161461064a576040517f08c379a000000000000000000000000000000000000000000000000000000000815260040161064190610e81565b60405180910390fd5b6001600081548092919061065d90610d5b565b919050555060405180604001604052806001548152602001828152506002600060015481526020019081526020016000206000820151816000015560208201518160010190816106ad919061104d565b5090505050565b60015481565b60008054906101000a900473ffffffffffffffffffffffffffffffffffffffff1681565b604051806040016040528060008152602001606081525090565b50805461070490610c98565b6000825580601f106107165750610735565b601f0160209004906000526020600020908101906107349190610738565b5b50565b5b80821115610751576000816000905550600101610739565b5090565b6000604051905090565b600080fd5b600080fd5b6000819050919050565b61077c81610769565b811461078757600080fd5b50565b60008135905061079981610773565b92915050565b6000602082840312156107b5576107b461075f565b5b60006107c38482850161078a565b91505092915050565b6107d581610769565b82525050565b600081519050919050565b600082825260208201905092915050565b60005b838110156108155780820151818401526020810190506107fa565b60008484015250505050565b6000601f19601f8301169050919050565b600061083d826107db565b61084781856107e6565b93506108578185602086016107f7565b61086081610821565b840191505092915050565b600060408201905061088060008301856107cc565b81810360208301526108928184610832565b90509392505050565b600081519050919050565b600082825260208201905092915050565b6000819050602082019050919050565b6108d081610769565b82525050565b600082825260208201905092915050565b60006108f2826107db565b6108fc81856108d6565b935061090c8185602086016107f7565b61091581610821565b840191505092915050565b600060408301600083015161093860008601826108c7565b506020830151848203602086015261095082826108e7565b9150508091505092915050565b60006109698383610920565b905092915050565b6000602082019050919050565b60006109898261089b565b61099381856108a6565b9350836020820285016109a5856108b7565b8060005b858110156109e157848403895281516109c2858261095d565b94506109cd83610971565b925060208a019950506001810190506109a9565b50829750879550505050505092915050565b60006020820190508181036000830152610a0d818461097e565b905092915050565b6000604083016000830151610a2d60008601826108c7565b5060208301518482036020860152610a4582826108e7565b9150508091505092915050565b60006020820190508181036000830152610a6c8184610a15565b905092915050565b600080fd5b600080fd5b7f4e487b7100000000000000000000000000000000000000000000000000000000600052604160045260246000fd5b610ab682610821565b810181811067ffffffffffffffff82111715610ad557610ad4610a7e565b5b80604052505050565b6000610ae8610755565b9050610af48282610aad565b919050565b600067ffffffffffffffff821115610b1457610b13610a7e565b5b610b1d82610821565b9050602081019050919050565b82818337600083830152505050565b6000610b4c610b4784610af9565b610ade565b905082815260208101848484011115610b6857610b67610a79565b5b610b73848285610b2a565b509392505050565b600082601f830112610b9057610b8f610a74565b5b8135610ba0848260208601610b39565b91505092915050565b600060208284031215610bbf57610bbe61075f565b5b600082013567ffffffffffffffff811115610bdd57610bdc610764565b5b610be984828501610b7b565b91505092915050565b6000602082019050610c0760008301846107cc565b92915050565b600073ffffffffffffffffffffffffffffffffffffffff82169050919050565b6000610c3882610c0d565b9050919050565b610c4881610c2d565b82525050565b6000602082019050610c636000830184610c3f565b92915050565b7f4e487b7100000000000000000000000000000000000000000000000000000000600052602260045260246000fd5b60006002820490506001821680610cb057607f821691505b602082108103610cc357610cc2610c69565b5b50919050565b7f4e487b7100000000000000000000000000000000000000000000000000000000600052601160045260246000fd5b6000610d0382610769565b9150610d0e83610769565b9250828203905081811115610d2657610d25610cc9565b5b92915050565b7f4e487b7100000000000000000000000000000000000000000000000000000000600052603260045260246000fd5b6000610d6682610769565b91507fffffffffffffffffffffffffffffffffffffffffffffffffffffffffffffffff8203610d9857610d97610cc9565b5b600182019050919050565b7f496e76616c69642073747564656e742049440000000000000000000000000000600082015250565b6000610dd96012836107e6565b9150610de482610da3565b602082019050919050565b60006020820190508181036000830152610e0881610dcc565b9050919050565b7f4f6e6c792061646d696e2063616e20706572666f726d2074686973206163746960008201527f6f6e000000000000000000000000000000000000000000000000000000000000602082015250565b6000610e6b6022836107e6565b9150610e7682610e0f565b604082019050919050565b60006020820190508181036000830152610e9a81610e5e565b9050919050565b60008190508160005260206000209050919050565b60006020601f8301049050919050565b600082821b905092915050565b600060088302610f037fffffffffffffffffffffffffffffffffffffffffffffffffffffffffffffffff82610ec6565b610f0d8683610ec6565b95508019841693508086168417925050509392505050565b6000819050919050565b6000610f4a610f45610f4084610769565b610f25565b610769565b9050919050565b6000819050919050565b610f6483610f2f565b610f78610f7082610f51565b848454610ed3565b825550505050565b600090565b610f8d610f80565b610f98818484610f5b565b505050565b5b81811015610fbc57610fb1600082610f85565b600181019050610f9e565b5050565b601f82111561100157610fd281610ea1565b610fdb84610eb6565b81016020851015610fea578190505b610ffe610ff685610eb6565b830182610f9d565b50505b505050565b600082821c905092915050565b600061102460001984600802611006565b1980831691505092915050565b600061103d8383611013565b9150826002028217905092915050565b611056826107db565b67ffffffffffffffff81111561106f5761106e610a7e565b5b6110798254610c98565b611084828285610fc0565b600060209050601f8311600181146110b757600084156110a5578287015190505b6110af8582611031565b865550611117565b601f1984166110c586610ea1565b60005b828110156110ed578489015182556001820191506020850194506020810190506110c8565b8683101561110a5784890151611106601f891682611013565b8355505b6001600288020188555050505b50505050505056fea26469706673582212209c84f8fdb05aa78dbbb9cea17b2173a5e074480d96c9fba6e1e2bbfe946750e464736f6c634300081c0033",
  "linkReferences": {},
  "deployedLinkReferences": {}
}